{
  "contractName": "Events",
  "abi": [
    {
      "inputs": [],
      "payable": false,
      "stateMutability": "nonpayable",
      "type": "constructor",
      "signature": "constructor"
    },
    {
      "anonymous": false,
      "inputs": [
        {
          "indexed": false,
          "name": "_name",
          "type": "string"
        }
      ],
      "name": "LogEvent",
      "type": "event",
      "signature": "0x0f9302c81771c0eee3c21199d1d5510ce78a68962d32a182bd71b8fb22a9ff1d"
    },
    {
      "constant": false,
      "inputs": [
        {
          "name": "name",
          "type": "string"
        }
      ],
      "name": "trigger",
      "outputs": [],
      "payable": false,
      "stateMutability": "nonpayable",
      "type": "function",
      "signature": "0xc603761c"
    }
  ],
  "bytecode": "0x608060405234801561001057600080fd5b5061017a806100206000396000f300608060405260043610610041576000357c0100000000000000000000000000000000000000000000000000000000900463ffffffff168063c603761c14610046575b600080fd5b34801561005257600080fd5b506100ad600480360381019080803590602001908201803590602001908080601f01602080910402602001604051908101604052809392919081815260200183838082843782019150505050505091929192905050506100af565b005b7f0f9302c81771c0eee3c21199d1d5510ce78a68962d32a182bd71b8fb22a9ff1d816040518080602001828103825283818151815260200191508051906020019080838360005b838110156101115780820151818401526020810190506100f6565b50505050905090810190601f16801561013e5780820380516001836020036101000a031916815260200191505b509250505060405180910390a1505600a165627a7a723058202c56443cf38d37201d550bdcf5f92c03d4d71c1332678c1359229b35aa4f67c80029",
  "source": "pragma solidity ^0.4.24;\n\ncontract Events {\n  constructor() public {\n\n  }\n\n  event LogEvent(\n    string  _name\n  );\n\n  function trigger(string name) public {\n    emit LogEvent(name);\n  }\n}\n",
  "sourcePath": "/Users/yaniv/Projects/hackathons/ethsf/bitsausage/ethereum/contracts/Events.sol",
  "compiler": {
    "name": "solc",
    "version": "0.4.25+commit.59dbf8f1.Emscripten.clang"
  },
  "schemaVersion": "3.0.0-beta.1",
  "updatedAt": "2018-10-06T03:15:13.927Z"
}